:100000000C9434000C943E000C943E000C943E0082
:100010000C943E000C943E000C943E000C943E0068
:100020000C943E000C943E000C943E000C943E0058
:100030000C943E000C943E000C943E000C943E0048
:100040000C943E000C943E000C943E000C943E0038
:100050000C943E000C943E000C943E000C943E0028
:100060000C943E000C943E0011241FBECFEFD8E04C
:10007000DEBFCDBF0E9440000C945C000C940000D9
:100080003CE33AB930E234B912C0222391F084E063
:100090001BB81BB81BB88BB989B189B1282F221F97
:1000A0002227221F83B1817093B196959170992375
:0C00B00061F3880F880FECCFF894FFCFAD
:00000001FF
