:100000000C9434000C943E000C943E000C943E0082
:100010000C943E000C943E000C943E000C943E0068
:100020000C943E000C943E000C943E000C943E0058
:100030000C943E000C943E000C943E000C943E0048
:100040000C943E000C943E000C943E000C943E0038
:100050000C943E000C943E000C943E000C943E0028
:100060000C943E000C943E0011241FBECFEFD8E04C
:10007000DEBFCDBF0E9440000C9467000C940000CE
:100080008CE38AB980E284B950E03295330F307E38
:100090003BB93BB160E1969FC0011124832B8BB922
:1000A0008BB1220F220F220F282B2BB99BB1852F4A
:1000B000892B8BB939B136FB332730F989B1982FA9
:1000C000991F9927991F23B1217083B1DECFF8942E
:0200D000FFCF60
:00000001FF
