:100000000C9434000C943E000C943E000C943E0082
:100010000C943E000C943E000C943E000C943E0068
:100020000C943E000C943E000C943E000C943E0058
:100030000C943E000C943E000C943E000C943E0048
:100040000C943E000C943E000C943E000C943E0038
:100050000C943E000C943E000C943E000C943E0028
:100060000C943E000C943E0011241FBECFEFD8E04C
:10007000DEBFCDBF0E9440000C945A000C940000DB
:100080008CE38AB980E284B989B189B183B183B143
:100090001BB89BB19BB99BB19BB94BB181FB22278C
:1000A00020F930E0C901880F991F880F991F842B10
:0800B0008BB9EACFF894FFCFF1
:00000001FF
